:020000040800F2
:10000000481200207D130008990300089B03000894
:100010009F030008A3030008A703000800000000D6
:10002000000000000000000000000000AB0300081A
:10003000AD03000800000000AF030008B103000892
:1000400093130008931300089313000893130008F8
:1000500093130008931300089313000893130008E8
:1000600093130008931300089313000893130008D8
:1000700093130008931300089313000893130008C8
:1000800093130008931300089313000893130008B8
:1000900093130008931300089313000893130008A8
:1000A0009313000893130008931300089313000898
:1000B0009313000893130008931300089313000888
:1000C0009313000893130008931300089313000878
:1000D0009313000893130008931300089313000868
:1000E00093130008931300089313000800F002F81C
:1000F00000F03AF80AA090E8000C82448344AAF188
:100100000107DA4501D100F02FF8AFF2090EBAE885
:100110000F0013F0010F18BFFB1A43F0010318473B
:10012000987E0000B87E0000103A24BF78C878C1DD
:10013000FAD8520724BF30C830C144BF04680C60ED
:10014000704700000023002400250026103A28BF35
:1001500078C1FBD8520728BF30C148BF0B60704739
:100160001FB51FBD10B510BD02F02BF91146FFF7EA
:10017000F7FF00F009F802F05DF903B4FFF7F2FFB2
:1001800003BC01F09BF800001CB500F082F90022CE
:1001900011464FF4E13001F0A0F85AA002F082F8C5
:1001A00060A002F07FF801F01FF800F011FE00F0EF
:1001B00068FD00205F49086000F0DCFF00F05AFE97
:1001C0008021FA2000F0E6F900F025FA5A4800F004
:1001D000B3FF00F020FA002002210123FA22CDE92A
:1001E00000101946184600F059FA002001217A2320
:1001F0000A46CDE90010084600F050FA002001211F
:100200001C23CD22CDE900100821BE2000F0AAFA5F
:10021000012000901C23E62208210190D22000F04A
:10022000A1FA012003460F223C210090D22000F0C9
:10023000F6FA0020012314223C210090D22000F085
:10024000EEFA3E4B3EA214210A2000F062FC3B4B2A
:100250003EA232210A2000F05CFC384B3EA2502125
:100260000A2000F056FC344800F04CFF4FF47A703E
:1002700000F0F7FF4FF47A7000F0F3FF00F0CBF9D5
:100280002E4B35A205212D2000F043FC2B4B35A22F
:100290002321012000F03DFC284B34A223218220A1
:1002A00000F037FC254B33A24121012000F031FC46
:1002B000224B34A25F21012000F02BFC1F4B33A204
:1002C0005F215C2000F025FC1C4B31A25F219620B1
:1002D00000F01FFC184800F02FFF00F04BFE4FF419
:1002E0007A7000F0BEFF4FF47A7000F0BAFF4FF45E
:1002F0007A7000F0B6FF4FF47A7000F0B2FF002081
:100300001CBD00000D0A2D2D20322E3133696E6385
:1003100068206570617065722064656D6F202D2D99
:100320000D0A000053544D333246313033433854B4
:10033000360D0A00A0812142440000201400002054
:100340003837363534333231302100007365656E0D
:1003500067726561742100005345454E475245411F
:100360005421000032696E6368313300452D5061BD
:1003700070657200323530783132322070697865BC
:100380006C730000426C61636B000000616E64007E
:100390005768697465000000704700BFFEE700BF42
:1003A000FEE700BFFEE700BFFEE7704770477047FB
:1003B000704700000CB50020019000906C48006868
:1003C00040F480306A49086000BF6948006800F462
:1003D000003000900198401C0190009818B90198D5
:1003E000B0F5A06FF1D16248006800F4003010B1A0
:1003F0000120009001E0002000900098012843D1E6
:100400005C48006840F010005A49086008460068DF
:1004100020F0030008600846006840F00200086011
:10042000534840685249486008464068486008465A
:10043000406840F4806048600846406820F47C10C2
:1004400048600846406840F4E81048600846006884
:1004500040F08070086000BF4548006800F0007000
:100460000028F9D04248406820F003004049486025
:100470000846406840F00200486000BF3C484068C1
:1004800000F00C000828F9D10CBD10B5FFF792FF61
:1004900010BD10B53648006840F0010034490860CE
:1004A00008464068344908403149486008460068B9
:1004B000324908402E4908600846006820F4802030
:1004C00008600846406820F4FE0048604FF41F00B2
:1004D0008860FFF7DAFF4FF000602949086010BD1F
:1004E00010B5002100200022214B5B6803F00C01B5
:1004F00021B1042906D0082928D107E0214B224C3C
:10050000236027E01F4B204C236023E0184B5B68DF
:1005100003F47010164B5B6803F48032022303EB84
:10052000904022B9194B4343174C23600DE0104B08
:100530005B6803F4003323B1144B4343124C236034
:1005400003E0104B4343104C236003E00D4B0E4C73
:10055000236000BF00BF064B5B68C3F303130C4C62
:10056000E15C094B1B68CB40074C236010BD0000C9
:1005700000100240002002400000FFF8FFFFF6FEDE
:1005800008ED00E000127A000000002000093D00A4
:100590000400002070B505460C46FF224FF47A6136
:1005A000F64801F08BFEF548A0F8A05FA0F8A24F36
:1005B00070BD2DE9F04105460C464FF000080027BC
:1005C000FA2D01DC7A2C05DDEDA001F06BFE002098
:1005D000BDE8F081A01D84B2601EC11700EB51710F
:1005E000CA10691E02EB01118FB2C11700EB5171E5
:1005F000C910A0EBC101C1F1070101F0FF08012002
:1006000000FA08F0C043C6B2DC48C05D3040DB49A8
:10061000C8550120DCE710B5FF224FF47A61D748B6
:1006200001F04CFE10BD70B505460C46FA2D01DCFC
:100630007A2C03DDDBA001F035FE70BD2146284693
:10064000FFF7B7FF00BFF8E72DE9F04105460E467A
:100650009046FA2D01DC7A2E04DDDCA001F022FEAA
:10066000BDE8F081002415E000270FE02819FA28E2
:1006700002DCF0197A2800DD06E0F21991B22A199D
:1006800090B2FFF7D0FF00BF781C87B24745EDDB83
:10069000601C84B24445E7DB00BFE1E72DE9F04F81
:1006A00085B004460D4616461F46A0460495301BED
:1006B00001D4301B00E0A01B8246781B01D4781BBC
:1006C00000E0E81B8346AAEB0B09B44202DD4FF0C1
:1006D000FF3000E001200290BD4202DD4FF0FF300C
:1006E00000E0012001900020009000BF0098401C15
:1006F00000900F9801280CD10321009890FBF1F293
:1007000001FB120028B940460E9A0499FFF79CFF9E
:1007100006E00F9820B940460E9A0499FFF794FF1F
:10072000B04503D10498B84200D117E04FEA490020
:100730000390CBF100010398884205DBA9EB0B097C
:10074000029840441FFA80F803985045CEDCD1440B
:1007500001990498084480B20490C7E700BF05B02F
:10076000BDE8F08F2DE9FC4780460E4691461F46B6
:10077000DDE90A4A8148B0F8A00F40450EDB7F480A
:10078000B0F8A20FB04209DB7C48B0F8A00F484592
:1007900004DB7A48B0F8A20FB84204DA96A001F060
:1007A00081FDBDE8FC87BAF1010F0FD135460AE0A3
:1007B00000202B464A462946CDE900404046FFF737
:1007C0006DFF681C85B2BD42F2DB26E0BAF1000F76
:1007D00023D1002033464A463146CDE90040404609
:1007E000FFF75CFF00203B4642463146CDE9004022
:1007F0004046FFF753FF00203B464A463946CDE9C5
:1008000000404046FFF74AFF00203B464A4631463B
:10081000CDE900404846FFF741FF00BFC1E72DE9A1
:10082000F05F05460E4691469B4600244F46C9F1AF
:10083000010AFA2D01DC7A2E04DD79A001F032FDE7
:10084000BDE8F09F95E00A98002838D1F21991B2DE
:100850002A1990B25A46FFF7F7FE321991B2EA19F7
:1008600090B25A46FFF7F0FEF21991B22A1B90B2ED
:100870005A46FFF7E9FE321991B2EA1B90B25A4686
:10088000FFF7E2FEF21B91B22A1B90B25A46FFF725
:10089000DBFE321B91B2EA1B90B25A46FFF7D4FE40
:1008A000F21B91B22A1990B25A46FFF7CDFE321BC5
:1008B00091B2EA1990B25A46FFF7C6FE4AE00A988A
:1008C000012847D1A04643E006EB080291B22A195D
:1008D00090B25A46FFF7B8FE321991B205EB080202
:1008E00090B25A46FFF7B0FE06EB080291B22A1BFF
:1008F00090B25A46FFF7A8FE321991B2A5EB080252
:1009000090B25A46FFF7A0FEA6EB080291B22A1B4E
:1009100090B25A46FFF798FE321B91B2A5EB08023F
:1009200090B25A46FFF790FEA6EB080291B22A1940
:1009300090B25A46FFF788FE321B91B205EB0802CF
:1009400090B25A46FFF780FE08F101001FFA80F8C6
:10095000B845B9DDBAF1000F03DA6000C01C82446B
:1009600005E0E01B4000401D8244781E87B2601CF9
:1009700084B2A7423FF767AF00BF61E744000020A1
:100980006472617720706F696E74206F7574206F68
:1009900066207468652073637265656E2061726598
:1009A000612100004552523A7365745F7069782086
:1009B000706F696E74206F7574206F662073637238
:1009C00065656E2061726561210D0A004552523ADB
:1009D0004775695F647261775F706F696E74206FCD
:1009E0007574206F662073637265656E2061726531
:1009F00061210D0A000000004552523A6C696E6593
:100A000020706F696E74206F7574206F6620736339
:100A10007265656E2061726561210D0A000000003B
:100A20004552523A636972636C652063656E746502
:100A30007220706F696E74206F7574206F662073FA
:100A4000637265656E2061726561210D0A000000A8
:100A50002DE9FF5F804689461D46B8F1FA0F02DC9A
:100A6000B9F17A0F04DD3FA001F01CFCBDE8FF9F47
:100A7000E988CA1701EB5272D2100846CB1701EB76
:100A80005373DB10A1EBC3030BB1012300E0002380
:100A90001A442B895A431FFA82FB0298203800FB24
:100AA0000BFA286800EB0A0700262DE000241DE061
:100AB000E11704EB5171C910A4EBC102802111416F
:100AC0003A78114039B109EB060291B208EB040201
:100AD00090B2FFF7A8FDE11704EB5171C910A4EB28
:100AE000C101072900D17F1C601C84B2E888A042A4
:100AF000DEDCE888C11700EB5171C910A0EBC10121
:100B000001B17F1C701C86B22889B042CEDC00BFC8
:100B1000ACE72DE9F0470746884615461C463E4699
:100B2000C1461AE0E0883044FA2804DD3E462089B8
:100B300048441FFA80F9208948447A2803DDC146D9
:100B4000E088304486B215F8012B234649463046EA
:100B5000FFF77EFFE088304486B228780028E1D194
:100B6000BDE8F0874552523A64726177206368614C
:100B70007220706F696E74206F7574206F662073B9
:100B8000637265656E2061726561210D0A00000067
:100B900070B50546002405E0601CC4B2C82C01DD18
:100BA000002070BD0221864801F043FB0028F3D0ED
:100BB0002946834801F0EAFA002405E0601CC4B22B
:100BC000C82C01DD0020ECE701217D4801F031FB5C
:100BD0000028F3D07A4801F0DBFAC0B2E1E700B5B3
:100BE00087B00121042000F06DFF0121080300F00F
:100BF00069FFE020ADF8180018208DF81B000320D5
:100C00008DF81A0006A96F4800F0A0FCE0216D489D
:100C100000F049FD23208DF8000001208DF801002F
:100C200002208DF8020001208DF80300684600F0D4
:100C3000C4FB0020ADF804004FF48270ADF806004C
:100C40000020ADF80800ADF80A00ADF80C004FF434
:100C50000070ADF80E003820ADF810000020ADF89F
:100C600012000720ADF8140001A9554801F0B8F9A9
:100C70000121534801F059FAFF20FFF789FF07B01F
:100C800000BD00B587B00121082000F01BFF012145
:100C9000880300F024FF4FF42040ADF8180018201E
:100CA0008DF81B0003208DF81A0006A9464800F0B5
:100CB0004DFC4FF42041444800F0F5FC24208DF811
:100CC000000001208DF8010002208DF802000120B3
:100CD0008DF80300684600F070FB4FF44040ADF81B
:100CE00004004FF48270ADF806000020ADF8080053
:100CF0000220ADF80A000020ADF80C004FF400709F
:100D0000ADF80E000020ADF81000ADF8120007207D
:100D1000ADF8140001A92D4801F062F901212B481A
:100D200001F003FA07B000BD10B50446244800885E
:100D30004FF6C771084022490880084600882043C2
:100D4000088001211E4801F0F0F910BD10B50446DD
:100D50001E4800884FF6C77108401C4908800846A5
:100D60000088204308800121184801F0DEF910BDF9
:100D700070B50546002405E0601CC4B2C82C01DD36
:100D8000002070BD0221114801F053FA0028F3D071
:100D900029460E4801F0FAF9002405E0601CC4B2AF
:100DA000022C01DD0020ECE70121084801F041FAA6
:100DB0000028F3D0054801F0EBF9C0B2E1E70000EC
:100DC0000030014000080140000C014000380040A4
:100DD00008B501210C2000F075FE4FF41060ADF84D
:100DE000000010208DF8030003208DF802006946F2
:100DF000EC4800F0ABFB4FF48050ADF80000482009
:100E00008DF803006946E74800F0A0FB4FF48850D6
:100E1000ADF8000010208DF8030003208DF80200CB
:100E20006946E14800F092FB08BD10B50446002079
:100E3000DE4908600120DE49C1F8A0012046FFF725
:100E400097FF0120D9490860D949C1F8A00110BD18
:100E500010B504460020D5490860D549C1F8A00165
:100E60002046FFF785FF0120D0490860D049C1F82E
:100E7000A00110BD10B50020CE490860FFF7E8FFC3
:100E8000FB20FFF7D2FF8920FFF7CFFF0120FFF7FC
:100E9000DFFF0320FFF7C9FF0020FFF7C6FF3F2059
:100EA000FFF7C3FF3F20FFF7C0FF0320FFF7BDFFA1
:100EB0000320FFF7CDFF0020FFF7B7FF0620FFF765
:100EC000C7FF2720FFF7B1FF2720FFF7AEFF2F2036
:100ED000FFF7ABFF3020FFF7BBFF0920FFF7A5FFAF
:100EE0006020FFF7B5FF2220FFF79FFF8220FFF76A
:100EF000AFFF0020FFF799FFE320FFF7A9FF0020D5
:100F0000FFF793FF4120FFF7A3FF0020FFF78DFFBE
:100F10006120FFF79DFF8020FFF787FF0020FFF78C
:100F200084FFFA20FFF781FF6520FFF791FF002083
:100F3000FFF77BFF0020FFF778FF0020FFF775FF2A
:100F40005020FFF785FFB720FFF76FFF10BD00BFF0
:100F5000994800680028FBD0704710B501209749D8
:100F600008701720FFF774FFA520FFF75EFFFFF75B
:100F7000EEFF10BD10B50720FFF76AFFA520FFF7B1
:100F800054FF10BD10B52020FFF762FF002404E0DD
:100F90008B49085DFFF749FF641C382CF8D32120EA
:100FA000FFF756FF002404E08649085DFFF73DFF88
:100FB000641C382CF8D32420FFF74AFF002404E0F7
:100FC0008149085DFFF731FF641C382CF8D379485C
:100FD0000068D8B92220FFF73BFF002404E07B49DA
:100FE000085DFFF722FF641C382CF8D32320FFF79D
:100FF0002FFF002404E07649085DFFF716FF641C0C
:10100000382CF8D301206B4908601AE02220FFF742
:101010001FFF002404E06E49085DFFF706FF641C13
:10102000382CF8D32320FFF713FF002404E067498E
:10103000085DFFF7FAFE641C382CF8D300205D49E8
:10104000086010BD10B52020FFF702FF002404E067
:101050006049085DFFF7E9FE641C382CF8D32120B5
:10106000FFF7F6FE002404E05B49085DFFF7DDFEB4
:10107000641C382CF8D32420FFF7EAFE002404E097
:101080005649085DFFF7D1FE641C382CF8D3494857
:101090000068D8B92220FFF7DBFE002404E05049A5
:1010A000085DFFF7C2FE641C382CF8D32320FFF73D
:1010B000CFFE002404E04B49085DFFF7B6FE641C38
:1010C000382CF8D301203B4908601AE02220FFF7B2
:1010D000BFFE002404E04349085DFFF7A6FE641C40
:1010E000382CF8D32320FFF7B3FE002404E03C495A
:1010F000085DFFF79AFE641C382CF8D300202D49B8
:10110000086010BD70B504465020FFF7A1FED7203F
:10111000FFF78BFE1320FFF79BFE002504E02078ED
:10112000FFF783FE641C6D1CB5F57A6FF7D3FFF7EC
:1011300089FFFFF712FF70BD70B504461F480078A5
:10114000012805D15020FFF783FED720FFF76DFE61
:101150001320FFF77DFE002504E02078FFF765FEF1
:10116000641C6D1CB5F57A6FF7D3FFF70BFFFFF723
:10117000F4FE70BD10B501200F497C3108600A20D3
:1011800000F06FF800200A49C1F8AC01642000F0BB
:1011900068F8012008497C310860642000F061F89B
:1011A00010BD000000080140000C0140B081214248
:1011B00000002142240000203001214220000020B4
:1011C000083F0008403F0008E83F0008783F00085B
:1011D000B03F0008204000085840000800410008C7
:1011E00090400008C840000810B56FF0040000F0FF
:1011F0002EF92E4800682E49B0FBF1F02D490870F9
:101200000846007800EB4001C1EBC0104FF6FF71BB
:1012100001EAC0002849088010BD0146254A12781D
:101220004A434FF0E0235A6100229A611A4612693C
:1012300042F001021A6100BF4FF0E022106900F095
:1012400001021AB100F48032002AF5D04FF0E022FA
:10125000126922F001024FF0E0231A6100229A6124
:1012600070470146144A12884A434FF0E0235A61FE
:1012700000229A611A46126942F001021A6100BF07
:101280004FF0E022106900F001021AB100F4803240
:10129000002AF5D04FF0E022126922F001024FF04F
:1012A000E0231A6100229A617047000000000020CC
:1012B00000127A00280000202A000020014600BF0A
:1012C000704700BF2B4A128802F04002002AF9D072
:1012D000C2B2284B1B1D1A80704770B586B00446F9
:1012E0000E461546012144F2050000F0EBFB4FF4D9
:1012F0000070ADF8140003208DF8160018208DF84A
:10130000170005A91C4800F021F94FF48060ADF8E2
:10131000140004208DF8170005A9174800F016F9ED
:1013200025208DF800008DF801608DF80250012015
:101330008DF80300684600F040F801940020ADF8F5
:101340000800ADF80A00ADF80C00ADF810000C2054
:10135000ADF80E0001A9074800F05BFC012240F245
:101360002551044800F0EDFC0121024800F0DDFCAD
:1013700006B070BD00380140000801400848004731
:10138000FEE7FEE7FEE7FEE7FEE7FEE7FEE7FEE735
:10139000FEE7FEE703480449024A044B7047000099
:1013A000ED000008481000204812002048100020DE
:1013B00031490143314A1160704770B50021002363
:1013C0000F22C47804B32D4C246804F4E064C4F5FF
:1013D000E064210AC1F10403CA40447804FA03F12D
:1013E0008478144021430901254C0678A1550478DE
:1013F00004F01F050124AC4005786D11AD0005F126
:10140000E025C5F8004109E0047804F01F05012437
:10141000AC401C4D0678761145F8264070BD1A4A3E
:101420000A400243154B1B1F1A60704739B1134A1B
:10143000121D12680243114B1B1D1A6006E00F4A71
:10144000121D126882430D4B1B1D1A607047042841
:1014500008D14FF0E021096941F004014FF0E0228A
:10146000116107E04FF0E021096921F004014FF01C
:10147000E0221161704700000000FA050CED00E069
:1014800000E400E080E100E080FFFF1F10B50446AB
:10149000CC48844208D10121042000F02DFB00211A
:1014A000042000F029FB46E0C748844208D101210E
:1014B000082000F021FB0021082000F01DFB3AE08D
:1014C000C248844208D10121102000F015FB002100
:1014D000102000F011FB2EE0BD48844208D101210C
:1014E000202000F009FB0021202000F005FB22E075
:1014F000B848844208D10121402000F0FDFA0021C3
:10150000402000F0F9FA16E0B348844208D10121E6
:10151000802000F0F1FA0021802000F0EDFA0AE0CE
:10152000AE48844207D10121801500F0E5FA002180
:10153000A01500F0E1FA10BD10B50121084600F039
:10154000DBFA0021012000F0D7FA10BD2DE9F041AF
:10155000024600250026002000230024002791F8E1
:1015600003C00CF00F0591F803C00CF0100CBCF197
:10157000000F03D091F802C04CEA050591F800C0B5
:10158000BCF1000F31D0146800202BE04FF0010CAB
:101590000CFA00F3B1F800C00CEA03069E4220D119
:1015A00083004FF00F0C0CFA03F7BC4305FA03FC61
:1015B0004CEA040491F803C0BCF1280F06D14FF0A7
:1015C000010C0CFA00FCC2F814C00AE091F803C048
:1015D000BCF1480F05D14FF0010C0CFA00FCC2F829
:1015E00010C0401C0828D1D31460B1F800C0BCF171
:1015F000FF0F34DD546800202EE000F1080C4FF09E
:10160000010808FA0CF3B1F800C00CEA03069E4288
:1016100021D183004FF00F0C0CFA03F7BC4305FAFD
:1016200003FC4CEA040491F803C0BCF1280F05D177
:1016300000F1080C08FA0CF8C2F8148091F803C005
:10164000BCF1480F07D100F1080C4FF0010808FA6F
:101650000CF8C2F81080401C0828CED35460BDE8B6
:10166000F0814FF6FF710180022181700421C17069
:1016700070470246002093680B400BB1012000E048
:10168000002070470146886880B2704702460020FB
:10169000D3680B400BB1012000E0002070470146E9
:1016A000C86880B2704701617047416170470AB1F4
:1016B000016100E041617047C16070474FF48032C2
:1016C0000A43826181618261826982697047024650
:1016D0000020434B18684FF68073184040EA021010
:1016E00008433F4B186070473E49C8617047F0B5EA
:1016F0000A46002300240021002500F00046B6F130
:10170000004F02D1364EF16901E0354E7168C0F3E9
:10171000034583B200F44016B6F5401F08D121F00E
:1017200070612F4E766826F070662D4F7E6012E055
:1017300000F48016B6F5801F06D1032606FA05F4DC
:10174000A14341F0706106E0460D360103FA06F64A
:10175000B14341F0706122B1460D360103FA06F63D
:10176000314300F00046B6F1004F02D11C4EF1614A
:1017700001E01B4E7160F0BD30B500228B071C0FDD
:101780000F2303FA04F2164B08338C1053F824305D
:101790009343134C08348D1044F8253023468C10A5
:1017A00053F824308C07240F00FA04F423430C4C24
:1017B00008348D1044F8253030BD0A49DC3108600A
:1017C0007047000000080140000C0140001001407B
:1017D0000014014000180140001C0140002001409D
:1017E0000000014000002042DF48006840F0010096
:1017F000DD49086008464068DC490840DA4948602D
:1018000008460068DA490840D74908600846006879
:1018100020F4802008600846406820F4FE004860FC
:101820004FF41F0088607047CF49096821F4803168
:10183000CD4A11601146096821F480211160B0F58C
:10184000803F03D0B0F5802F0ED106E0C64909686D
:1018500041F48031C44A116007E0C349096841F48A
:10186000A021C14A116000E000BF00BF704710B561
:1018700001460022002300204A11012A02D1BA4C5D
:10188000236806E0022A02D1B74C236A01E0B64C75
:10189000636A01F01F02012494401C400CB1012036
:1018A00000E0002010BD38B5002000900024002585
:1018B00000BF3120FFF7DBFF05460098401C009079
:1018C0000098B0F5A06F01D0002DF2D03120FFF7C5
:1018D000CEFF08B1012400E00024204638BD0146B7
:1018E0000020A14A106820F0F80040EAC100106012
:1018F0007047A04908607047024600209A4B58681C
:1019000020F47C1042EA01031843974B586070475B
:1019100098490866704701460020934A506820F0B5
:1019200003000843506070478F48406800F00C0087
:101930007047014600208C4A506820F0F0000843B0
:101940005060704701460020874A506820F4E060EC
:1019500008435060704701460020834A506820F4D5
:10196000605040EAC1005060704729B17E4A527A07
:1019700002437D4B5A7204E07B4A527A82437A4B8F
:101980005A7270477B49D831086070470146002081
:10199000754A506820F44040084350607047002169
:1019A000714A20321170704A82F82010012802D04A
:1019B00004280AD104E001216B4A2032117005E0AD
:1019C0000521694A2032117000E000BF00BF704756
:1019D0006949086070476449096A0143624A1162B3
:1019E0007047654944390860704730B500210022CE
:1019F000002400235C4D6D6805F00C0121B1042921
:101A000005D0082923D105E05C4D056022E05B4D3F
:101A100005601FE0544D6D6805F47012524D6D68FD
:101A200005F48034022505EB92421CB9544D554310
:101A300005600BE04C4D6D6805F400351DB1504D4F
:101A40005543056002E04D4D5543056002E04B4DA6
:101A5000056000BF00BF444D6D6805F0F001090945
:101A6000484D6B5C0568DD4045603F4D6D6805F491
:101A7000E061090A434D6B5C4568DD4085603A4D85
:101A80006D6805F46051C90A3E4D6B5C4568DD40E8
:101A9000C560354D6D6805F44041890B3A4D6B5C6E
:101AA000C568B5FBF3F5056130BD29B12E4A526911
:101AB00002432D4B5A6104E02B4A526982432A4B60
:101AC0005A61704729B1284A92690243264B9A61AC
:101AD00004E0254A92698243234B9A61704729B1F9
:101AE000214AD2690243204BDA6104E01E4AD269DE
:101AF00082431D4BDA61704729B11B4AD268024309
:101B0000194BDA6004E0184AD2688243164BDA6057
:101B1000704729B1144A12690243134B1A6104E059
:101B2000114A12698243104B1A61704712494039B9
:101B3000086070470F49C86470470B49C871704707
:101B40000948406A40F08070074948627047014682
:101B50000020054A92680A400AB1012000E00020F6
:101B60007047014988727047001002400000FFF87A
:101B7000FFFFF6FE000042428004424200127A005B
:101B800000093D00300000204000002010B5044650
:101B9000FB48844209D101218803FFF7ADFF0021F2
:101BA0004FF48040FFF7A8FF32E0F648844209D1A5
:101BB00001214804FFF7ADFF00214FF40030FFF78B
:101BC000A8FF25E0F048844209D101218804FFF7ED
:101BD000A0FF00214FF48020FFF79BFF18E0EB48A7
:101BE000844209D10121C804FFF793FF00214FF47B
:101BF0000020FFF78EFF0BE0E548844208D1012169
:101C00000805FFF786FF00214FF48010FFF781FFE2
:101C100010BD2DE9F04786B005460E460024A246C9
:101C200000BFA1460027B08900B100BF2F462C8A13
:101C30004CF6FF700440F08804432C82AC894EF6C9
:101C4000F3100440B0883189084371890843044384
:101C5000AC81AC8A4FF6FF400440B0890443AC82AB
:101C600001A8FFF7C2FEC648874202D1DDF810A0E6
:101C700001E0DDF80CA0A88900F4004040B10AEBB7
:101C8000CA0000EB0A1031684900B0FBF1F807E028
:101C90000AEBCA0000EB0A1031688900B0FBF1F8CA
:101CA0006420B8FBF0F004012009642101FB1089D5
:101CB000A88900F4004040B1322000EBC900B0FB1D
:101CC000F1F000F00700044308E0322000EB0910B7
:101CD0006421B0FBF1F000F00F0004432C8106B04A
:101CE000BDE8F0874FF41651016000218180C1806A
:101CF00001810C21418100218181704710B502468C
:101D00000020108A4FF2FF0318400B884C882343B1
:101D10008C882343CC8823431843108210BD0021B4
:101D2000018041808180C180704721B1828942F465
:101D30000052828104E082894DF6FF731A4082814D
:101D40007047F0B50346002400260025002040F629
:101D50006A17B94200D100BF1846C1F3421401F01E
:101D60001F06012707FA06F5012C01D10C3004E00B
:101D7000022C01D1103000E014301AB107682F4353
:101D8000076002E00768AF430760F0BD1AB1838ABD
:101D90000B43838202E0838A8B4383827047028AEB
:101DA0004FF6F0731A400282028A0A430282704799
:101DB00082894FF2FF731A40828182890A438281AD
:101DC000704721B1828942F00202828104E0828957
:101DD0004FF6FD731A4082817047028A4FF6DF7317
:101DE0001A400282028A0A430282704721B1028AA3
:101DF00042F48042028204E0028A4BF6FF731A40EA
:101E000002827047C1F308028280704701468888C9
:101E1000C0F308007047818941F00101818170475A
:101E2000028BD2B20283028B42EA01220283704704
:101E3000028B02F47F420283028B0A4302837047C3
:101E400021B1828A42F02002828204E0828A4FF627
:101E5000DF731A408282704721B1828A42F01002F9
:101E6000828204E0828A4FF6EF731A4082827047C2
:101E700021B1828A42F00802828204E0828A4FF60F
:101E8000F7731A408282704721B1828942F400427E
:101E9000828103E08289C2F30E028281704721B100
:101EA000828A42F40062828204E0828A4FF2FF73E7
:101EB0001A4082827047828A4FF6FB731A408282F0
:101EC000828A0A438282704721B1828A42F00202EA
:101ED000828204E0828A4FF6FD731A408282704744
:101EE00002460020B1F5007F00D100BF13880B40EF
:101EF0000BB1012000E00020704701F40072B2F540
:101F0000007F00D100BFCA430280704770B502460F
:101F1000002400230025002040F66A16B14200D1BB
:101F200000BFC1F3421501F01F03012606FA03F3B7
:101F3000012D02D19689334006E0022D02D1168A86
:101F4000334001E0968A33400C12012606FA04F46D
:101F50001688344013B10CB1012000E0002070BDA0
:101F600010B50022002340F66A14A14200D100BF40
:101F70000A1201249440A3B2DC43048010BD000087
:101F8000003801400044004000480040004C004040
:101F90000050004010B50446BE48844208D10121DB
:101FA0008014FFF7A9FD0021A014FFF7A5FD16E09E
:101FB000B948844208D101210014FFF7AAFD00218D
:101FC0002014FFF7A6FD0AE0B448844207D101219E
:101FD000C013FFF79EFD0021E013FFF79AFD10BD2F
:101FE00010B50022028802F441520B884C8823432A
:101FF0008C882343CC8823430C8923434C89234377
:102000008C892343CC8923431A430280838B4FF26C
:10201000FF74234083830B8A038210BD2DE9F04FA8
:1020200085B005460C464FF0000902274FF0000826
:102030004FF0010B0026B246A88B4FF2400108403A
:10204000A88302202884B5F81C90A068022801D13A
:1020500000BF38E0A08810B94FF0010B01E04FF04D
:10206000020B8D48854200D100E000BF6846FFF7B3
:10207000BCFCDDF800A0E088B0F5007F0AD14FEA93
:102080001A2000EB80004000A168B0FBF1F0401D79
:1020900086B20BE04FEA4B10BAFBF0F000EB800089
:1020A0004000A168B0FBF1F0401D86B20A20B6FBEB
:1020B000F0F606F00108A6EB0800C0F34F074FF654
:1020C000FF7000EA0828022F01DBFF2F02DD022744
:1020D0004FF00008E08840EA080038432884A088D0
:1020E000A1890843618808432188084340F40060BF
:1020F00040EA0909A5F81C9005B0BDE8F08F002161
:10210000018041808180C180018141818181C181C3
:102110000721018270470021018041808180C180B8
:102120000221816000218181704721B1028842F043
:102130004002028004E002884FF6BF731A4002801A
:10214000704721B1828B42F48062828304E0828BEB
:102150004FF6FF331A408283704730B500240023C6
:102160000C110125A540ABB21AB185881D438580AD
:1021700002E085889D43858030BD1AB183880B437A
:10218000838002E083888B4383807047818170471E
:102190000146888970474FF6FF62914204D0028859
:1021A00042F48072028004E002884FF6FF631A4016
:1021B0000280704721B1828842F00402828004E0EC
:1021C00082884FF6FB731A408280704702884FF274
:1021D000FF731A40028002880A4302807047018818
:1021E00041F480510180704721B1028842F40052CD
:1021F000028004E002884DF6FF731A4002807047A7
:1022000002460020012901D0108B00E0908A70471F
:102210000146088A7047B1F5804F04D1028842F424
:102220008042028004E002884BF6FF731A4002806D
:1022300070470246002013890B400BB1012000E0DB
:1022400000207047CA4302817047F0B50246002063
:1022500000240023002501F00F070126BE40B4B280
:102260000B1101269E40B3B2968806EA0305168933
:10227000264016B10DB1012000E00020F0BD10B5E0
:10228000002201F00F040123A3409AB2D34303813B
:1022900010BD00000030014000380040003C00400C
:1022A000704700000FB4044910B503AA029800F06B
:1022B00011F810BC5DF814FB2C00002002F0FF03A5
:1022C00043EA032242EA024200F018B8704770471E
:1022D00070477047074B70B50D467B4400F033F8EC
:1022E0000446284600F042F810B14FF0FF3070BDB0
:1022F000204670BDE5EFFFFF4FF000020429C0F05B
:10230000128010F0030C00F03780CCF1040CBCF10B
:10231000020F18BF00F8012BA8BF20F8022BA1EB79
:102320000C0100F029B85FEAC17C24BF00F8012B42
:1023300000F8012B48BF00F8012B704701694A1CC7
:1023400002610878704700B58FB0CDE901310021F6
:10235000059105497944CDE903101146684600F01E
:1023600055F80FB000BD0000E5FFFFFF007B00F057
:10237000800070474FF0000200B513469446964621
:10238000203922BFA0E80C50A0E80C50B1F1200188
:10239000BFF4F7AF090728BFA0E80C5048BF0CC036
:1023A0005DF804EB890028BF40F8042B08BF704794
:1023B00048BF20F8022B11F0804F18BF00F8012B06
:1023C0007047754600F040F8AE4605006946534632
:1023D00020F00700854618B020B5FEF7DBFFBDE80A
:1023E00020404FF000064FF000074FF000084FF07C
:1023F000000B21F00701AC46ACE8C009ACE8C0090D
:10240000ACE8C009ACE8C0098D4670472DE9F04141
:1024100006460024D6E90170F5688046304603E0A0
:102420004146B847641C3046A8470028F8D12046EA
:10243000BDE8F08110B50446AFF300802046BDE84A
:102440001040FDF79ABE000000487047E80F0020DA
:10245000000000000000000000000000000000007C
:10246000000000000000000000000000000000006C
:10247000000000000000000000000000000000005C
:10248000000000000000000000000000000000004C
:1024900000000000000000000000000000000380B9
:1024A000000380000380000380000380000380009D
:1024B0000380000380000380000100000100000091
:1024C0000000000000038000038000000000000006
:1024D00000000000000000000000000000000000FC
:1024E0000000000000000000000E70000E70000EE2
:1024F00070000420000420000420000420000000DC
:1025000000000000000000000000000000000000CB
:1025100000000000000000000000000000000000BB
:102520000000000000000000000000000000066045
:10253000000660000660000660000660003FF800CC
:102540003FF8000660000CC0003FF8003FF8000CA8
:10255000C0000CC0000CC0000CC0000CC00000008B
:10256000000000000000000000000000000000006B
:1025700000000001800001800007B0000FF000188B
:1025800070001870001C00000F800007E00000F0D1
:10259000001830001C30001C70001FE0001BC00041
:1025A0000180000180000180000180000000000027
:1025B0000000000000000000000000000000078094
:1025C000000FC0001CE0001860001860001CE00054
:1025D0000FF80007E0001FF000073800061800069B
:1025E000180007380003F00001E0000000000000C0
:1025F00000000000000000000000000000000000DB
:1026000000000000000000000000000003F00007D0
:10261000F0000C60000C00000C0000060000070039
:10262000000F9C001DFC0018F0001870000FFC004B
:1026300007DC0000000000000000000000000000B7
:10264000000000000000000000000000000000008A
:1026500000038000038000038000010000010000EF
:102660000100000100000000000000000000000068
:10267000000000000000000000000000000000005A
:10268000000000000000000000000000000000004A
:10269000000000000000001800003800007000007A
:1026A000F00000E00000E00001C00001C00001C037
:1026B0000001C00001C00001C00000E00000E00017
:1026C00000700000700000380000180000000000DA
:1026D00000000000000000000000000000001800E2
:1026E000001C00000E00000E0000070000070000A4
:1026F0000380000380000380000380000380000348
:1027000080000700000700000F00000E00001C0002
:1027100000180000000000000000000000000000A1
:102720000000000000000180000180000180001D09
:10273000B8001FF80007E00003C00003C0000660F7
:102740000006600000000000000000000000000023
:102750000000000000000000000000000000000079
:102760000000000000000000000000000000000069
:102770000000000001800001800001800001800055
:102780000180003FFC003FFC00018000018000014F
:1027900080000180000180000000000000000000B7
:1027A0000000000000000000000000000000000029
:1027B0000000000000000000000000000000000019
:1027C0000000000000000000000000000000000009
:1027D0000000000000000000000000E00000C00059
:1027E00001C0000180000180000300000300000020
:1027F00000000000000000000000000000000000D9
:1028000000000000000000000000000000000000C8
:102810000000001FF8001FF800000000000000008A
:1028200000000000000000000000000000000000A8
:102830000000000000000000000000000000000098
:102840000000000000000000000000000000000088
:102850000000000000000000000000000000000078
:102860000000000000000000000003C00003C000E2
:1028700003C0000000000000000000000000000095
:1028800000000000000000000018000018000038E0
:102890000000300000700000600000600000C00018
:1028A00000C000018000018000030000030000065A
:1028B00000000600000E00000C00001C00001800C4
:1028C00000180000000000000000000000000000F0
:1028D00000000000000003C00007E0000C30000C06
:1028E00030001818001818001818001818001818C8
:1028F000001818001818000C30000C300007E00019
:1029000003C0000000000000000000000000000004
:102910000000000000000000000000000000008037
:10292000000780001F80001D8000018000018000E2
:102930000180000180000180000180000180000111
:1029400080000180001FF8001FF800000000000058
:102950000000000000000000000000000000000077
:1029600000000000000007C0001FF00038300030F9
:10297000180030180000180000300000600001C08E
:10298000000380000600000C00001800003FF80063
:102990003FF8000000000000000000000000000000
:1029A000000000000000000000000000000003C064
:1029B000000FE0000C7000003000003000006000EC
:1029C00003C00003E00000700000180000180000C1
:1029D00018001838001FF0000FC0000000000000B1
:1029E00000000000000000000000000000000000E7
:1029F00000000000000000E00001E00001E0000332
:102A000060000660000660000C60000C600018604A
:102A1000003060003FF8003FF80000600003F8005D
:102A200003F80000000000000000000000000000AB
:102A300000000000000000000000000000001FF087
:102A4000001FF0001800001800001800001BC00054
:102A50001FF0001C300000180000180000180000D3
:102A600018003030003FF0000FC0000000000000F0
:102A70000000000000000000000000000000000056
:102A800000000000000000F80003F8000700000E3E
:102A900000000C00001800001BC0001FF0001C30DC
:102AA000001818001818001818000C38000FF00053
:102AB00003E0000000000000000000000000000033
:102AC00000000000000000000000000000001FF8EF
:102AD000001FF800181800183800003000003000FF
:102AE00000700000600000600000E00000C0000016
:102AF000C00001C000018000018000000000000053
:102B000000000000000000000000000000000000C5
:102B100000000000000007E0000FF0001C38001863
:102B200018001818000C300007E00007E0000C3017
:102B3000001818001818001818001C38000FF000B2
:102B400007E000000000000000000000000000009E
:102B5000000000000000000000000000000007C0AE
:102B6000000FF0001C30001818001818001818008A
:102B70000C38000FF80003D80000180000300000E7
:102B8000700000E0001FC0001F00000000000000F7
:102B90000000000000000000000000000000000035
:102BA0000000000000000000000000000000000025
:102BB000000003C00003C00003C0000000000000CC
:102BC0000000000000000000000003C00003C0007F
:102BD00003C0000000000000000000000000000032
:102BE00000000000000000000000000000000000E5
:102BF0000000000000000000000000F00000F000F5
:102C000000F00000000000000000000000000000D4
:102C1000E00001C00001800001800003000002000C
:102C200000000000000000000000000000000000A4
:102C3000000000000000000000000000001C000078
:102C40003C0000F00003C0000F00003C0000F0005A
:102C5000003C00000F000003C00000F000003C003A
:102C6000001C000000000000000000000000000048
:102C70000000000000000000000000000000000054
:102C8000000000000000000000000000007FFC00C9
:102C90007FFC000000000000007FFC007FFC0000C3
:102CA0000000000000000000000000000000000024
:102CB0000000000000000000000000000000000014
:102CC000000000000000000000000000700000781C
:102CD00000001E000007800001E000007800001ED8
:102CE0000000780001E0000780001E00007800006E
:102CF0007000000000000000000000000000000064
:102D000000000000000000000000000000000000C3
:102D10000007C0000FE000187000183000183000E5
:102D200000700000E00003C000038000030000000A
:102D30000000000000070000070000000000000085
:102D40000000000000000000000000000000000083
:102D500000000000000003E00007F0000E38000C47
:102D6000180018780018F80019D800199800199858
:102D70000019980018F8001878001800000C0000DE
:102D80000E180007F80003E000000000000000003B
:102D90000000000000000000000000000000000033
:102DA000001F80001FC00001C0000360000360001E
:102DB0000630000630000C30000FF8001FF8001835
:102DC0000C00300C00FC7F00FC7F000000000000C5
:102DD00000000000000000000000000000000000F3
:102DE0000000000000000000007FE0007FF00018FD
:102DF00038001818001818001838001FF0001FF8C5
:102E000000181C00180C00180C00180C007FF800AB
:102E10007FF0000000000000000000000000000043
:102E200000000000000000000000000000000000A2
:102E30000003EC000FFC001C1C00180C00300C0000
:102E4000300000300000300000300000300000187A
:102E50000C001C1C000FF80003F000000000000034
:102E60000000000000000000000000000000000062
:102E70000000000000000000007FC0007FF000188C
:102E80003800181800180C00180C00180C00180C4A
:102E900000180C00180C001818001838007FF000FB
:102EA0007FE00000000000000000000000000000C3
:102EB0000000000000000000000000000000000012
:102EC000007FF8007FF80018180018180019980003
:102ED0001980001F80001F800019800019980018B9
:102EE00018001818007FF8007FF8000000000000AC
:102EF00000000000000000000000000000000000D2
:102F00000000000000000000003FFC003FFC000C3F
:102F10000C000C0C000CCC000CC0000FC0000FC04B
:102F2000000CC0000CC0000C00000C00003FC000F2
:102F30003FC0000000000000000000000000000092
:102F40000000000000000000000000000000000081
:102F50000003EC000FFC001C1C00180C00300C00DF
:102F600030000030000030FE0030FE00300C003831
:102F70000C001C1C000FFC0003F00000000000000F
:102F80000000000000000000000000000000000041
:102F90000000000000000000007E7E007E7E001821
:102FA00018001818001818001818001FF8001FF84B
:102FB000001818001818001818001818007E7E0055
:102FC0007E7E000000000000000000000000000005
:102FD00000000000000000000000000000000000F1
:102FE000001FF8001FF80001800001800001800030
:102FF000018000018000018000018000018000014B
:1030000080000180001FF8001FF800000000000091
:1030100000000000000000000000000000000000B0
:1030200000000000000000000007FE0007FE000096
:103030003000003000003000003000003000303040
:10304000003030003030003030003060003FE000B1
:103050000F800000000000000000000000000000E1
:103060000000000000000000000000000000000060
:10307000007F3E007F3E0018300018600018C0003E
:103080001980001B80001FC0001CE0001870001891
:1030900030001838007F1F007F1F00000000000074
:1030A0000000000000000000000000000000000020
:1030B0000000000000000000007F80007F80000C06
:1030C00000000C00000C00000C00000C00000C00C4
:1030D000000C0C000C0C000C0C000C0C007FFC0015
:1030E0007FFC000000000000000000000000000065
:1030F00000000000000000000000000000000000D0
:1031000000F00F00F81F00381C003C3C003C3C0065
:10311000366C00366C0033CC0033CC00318C003080
:103120000C00300C00FE7F00FE7F0000000000005D
:10313000000000000000000000000000000000008F
:1031400000000000000000000078FE0078FE001C77
:1031500018001E18001F18001B18001B980019D813
:103160000018D80018F8001878001838007F1800E8
:103170007F180000000000000000000000000000B8
:10318000000000000000000000000000000000003F
:103190000003C0000FF0001C3800181800381C0095
:1031A000300C00300C00300C00300C00381C0018C3
:1031B00018001C38000FF00003C0000000000000E1
:1031C00000000000000000000000000000000000FF
:1031D0000000000000000000003FF0003FF8000C7D
:1031E0001C000C0C000C0C000C0C000C18000FF850
:1031F000000FE0000C00000C00000C00003FC000BD
:103200003FC00000000000000000000000000000BF
:1032100000000000000000000000000000000000AE
:103220000003C0000FF0001C3800181800381C0004
:10323000300C00300C00300C00300C00381C001832
:1032400018001C38000FF00007C00007CC000FFC6E
:10325000000C38000000000000000000000000002A
:103260000000000000000000007FE0007FF0001878
:1032700038001818001818001838001FF0001FC078
:103280000018E0001870001830001838007F1E0089
:103290007F0E0000000000000000000000000000A1
:1032A000000000000000000000000000000000001E
:1032B0000007D8000FF8001C380018180018180074
:1032C0001E00000FC00003F000007800181800185E
:1032D00018001C38001FF0001BE000000000000078
:1032E00000000000000000000000000000000000DE
:1032F0000000000000000000003FFC003FFC003127
:103300008C00318C00318C00318C000180000180F8
:10331000000180000180000180000180000FF000AA
:103320000FF000000000000000000000000000009E
:10333000000000000000000000000000000000008D
:10334000007E7E007E7E00181800181800181800F5
:103350001818001818001818001818001818001865
:1033600018000C30000FF00003C000000000000047
:10337000000000000000000000000000000000004D
:103380000000000000000000007F7F007F7F001829
:103390000C000C18000C18000C1800063000063049
:1033A0000003600003600003600001C00001C00072
:1033B000008000000000000000000000000000008D
:1033C00000000000000000000000000000000000FD
:1033D00000FE3F80FE3F8030060030060030860051
:1033E00019CC0019CC001B6C001B6C001E7C000E5D
:1033F00038000E38000C18000C1800000000000007
:1034000000000000000000000000000000000000BC
:103410000000000000000000007E7E007E7E00189C
:1034200018000C300006600003C00001800001801D
:103430000003C0000660000C30001818007E7E00FB
:103440007E7E000000000000000000000000000080
:10345000000000000000000000000000000000006C
:10346000007C7E007C7E001818000C300006600096
:1034700006600003C000018000018000018000019F
:1034800080000180000FF0000FF00000000000003D
:10349000000000000000000000000000000000002C
:1034A0000000000000000000001FF8001FF80018D6
:1034B000180018300018600018C0000180000300D8
:1034C000000618000C18001818003018003FF8000B
:1034D0003FF80000000000000000000000000000B5
:1034E000000000000000000000000000000001F0EB
:1034F0000001F000018000018000018000018000D7
:103500000180000180000180000180000180000135
:10351000800001800001800001800001800001F036
:103520000001F000000000000000000000000000AA
:103530001800001800001C00000C00000E0000061F
:10354000000006000003000003000001800001806D
:103550000000C00000C000006000006000007000BB
:1035600000300000380000180000180000000000C3
:1035700000000000000000000000000000000F80BC
:10358000000F8000018000018000018000018000A8
:1035900001800001800001800001800001800001A5
:1035A00080000180000180000180000180000F8008
:1035B000000F80000000000000000000000000007C
:1035C00000000000800001C00003E000077000065A
:1035D00030000C1800180C0010040000000000005F
:1035E00000000000000000000000000000000000DB
:1035F00000000000000000000000000000000000CB
:1036000000000000000000000000000000000000BA
:1036100000000000000000000000000000000000AA
:10362000000000000000000000000000000000009A
:10363000000000000000000000000000000000008A
:1036400000000000000000000000FFFF00FFFF007E
:1036500000000003000003800000E00000600000A4
:10366000000000000000000000000000000000005A
:10367000000000000000000000000000000000004A
:10368000000000000000000000000000000000003A
:10369000000000000000000000000000000000002A
:1036A000000000000000000000000FC0001FE0004C
:1036B00000300000300007F0001FF000383000300C
:1036C00030003070001FFC000FBC00000000000044
:1036D00000000000000000000000000000000000EA
:1036E00000000000000078000078000018000018BA
:1036F00000001BE0001FF8001C1800180C00180C3C
:1037000000180C00180C00180C001C18007FF800A2
:103710007BE000000000000000000000000000004E
:103720000000000000000000000000000000000099
:103730000000000000000000000003EC000FFC008F
:103740001C1C00380C00300C003000003000003829
:103750000C001C1C000FF80003F00000000000002B
:103760000000000000000000000000000000000059
:103770000000000000000078000078000018000041
:10378000180007D8001FF80018380030180030184B
:10379000003018003018003018001838001FFE00E4
:1037A00007DE000000000000000000000000000034
:1037B0000000000000000000000000000000000009
:1037C0000000000000000000000007E0001FF800FB
:1037D000181800300C003FFC003FFC0030000030A7
:1037E0000000180C001FFC0007F0000000000000A3
:1037F00000000000000000000000000000000000C9
:1038000000000000000001FC0003FC0006000006B0
:1038100000003FF8003FF800060000060000060028
:10382000000600000600000600000600003FF00051
:103830003FF0000000000000000000000000000059
:103840000000000000000000000000000000000078
:103850000000000000000000000007DE001FFE0066
:1038600018380030180030180030180030180030B8
:1038700018001838001FF80007D8000018000018BA
:10388000000038000FF0000FC00000000000000032
:103890000000000000007800007800001800001808
:1038A00000001BE0001FF0001C380018180018185A
:1038B000001818001818001818001818007E7E004C
:1038C0007E7E0000000000000000000000000000FC
:1038D0000000000000000000000000000000018067
:1038E000000180000000000000001F80001F800019
:1038F0000180000180000180000180000180000142
:1039000080000180003FFC003FFC00000000000040
:1039100000000000000000000000000000000000A7
:1039200000000000000000C00000C0000000000017
:1039300000001FF0001FF0000030000030000030D9
:103940000000300000300000300000300000300087
:103950000030000030000030000070001FE0001F49
:1039600080000000000000000000000000003C009B
:10397000003C00000C00000C00000CF8000CF800EB
:103980000CC0000D80000F80000F00000F80000DA4
:10399000C0000CE0003C7C003C7C0000000000000B
:1039A0000000000000000000000000000000000017
:1039B0000000000000001F80001F80000180000147
:1039C00080000180000180000180000180000180F2
:1039D000000180000180000180000180003FFC00A8
:1039E0003FFC00000000000000000000000000009C
:1039F00000000000000000000000000000000000C7
:103A000000000000000000000000F77800FFFC004C
:103A100039CC00318C00318C00318C00318C00317C
:103A20008C00318C00FDEF00FDEF00000000000075
:103A30000000000000000000000000000000000086
:103A40000000000000000000000000000000000076
:103A500000007BE0007FF0001C38001818001818E8
:103A6000001818001818001818001818007E7E009A
:103A70007E7E00000000000000000000000000004A
:103A80000000000000000000000000000000000036
:103A90000000000000000000000003C0000FF00064
:103AA0001C3800381C00300C00300C00300C003882
:103AB0001C001C38000FF00003C0000000000000D4
:103AC00000000000000000000000000000000000F6
:103AD00000000000000000000000000000000000E6
:103AE00000007BE0007FF8001C1800180C00180C88
:103AF00000180C00180C00180C001C18001FF8000F
:103B00001BE0001800001800001800007F00007F74
:103B100000000000000000000000000000000000A5
:103B20000000000000000000000007DE001FFE0093
:103B300018380030180030180030180030180030E5
:103B400018001838001FF80007D8000018000018E7
:103B50000000180000FE0000FE0000000000000051
:103B60000000000000000000000000000000000055
:103B700000003E78003EFC0007CC00070000060075
:103B8000000600000600000600000600003FF000EE
:103B90003FF00000000000000000000000000000F6
:103BA0000000000000000000000000000000000015
:103BB0000000000000000000000007F8000FF800FF
:103BC0001818001818001F80000FF00000F80018E7
:103BD00018001838001FF0001FE00000000000006F
:103BE00000000000000000000000000000000000D5
:103BF0000000000000000C00000C00000C00000C95
:103C000000003FF0003FF0000C00000C00000C0032
:103C1000000C00000C00000C00000C1C0007FC0055
:103C200003F00000000000000000000000000000A1
:103C30000000000000000000000000000000000084
:103C40000000000000000000000078780078780094
:103C5000181800181800181800181800181800185C
:103C600018001838000FFE0007DE000000000000FA
:103C70000000000000000000000000000000000044
:103C80000000000000000000000000000000000034
:103C900000007C3E007C3E001818001818000C3014
:103CA000000C300006600006600007E00003C00062
:103CB00003C0000000000000000000000000000041
:103CC00000000000000000000000000000000000F4
:103CD00000000000000000000000783C00783C007C
:103CE0003118003398003398001AB0001EF0001EFF
:103CF000F0001C60000C60000C6000000000000080
:103D000000000000000000000000000000000000B3
:103D100000000000000000000000000000000000A3
:103D200000003E7C003E7C000C300006600003C0BA
:103D30000001800003C0000660000C30003E7C00E3
:103D40003E7C0000000000000000000000000000B9
:103D50000000000000000000000000000000000063
:103D6000000000000000000000007E1F007E1F0019
:103D7000180C000C18000C18000630000630000368
:103D8000600003E00001C00000C00001800001806D
:103D9000000300003FC0003FC00000000000000022
:103DA0000000000000000000000000000000000013
:103DB00000001FF8001FF80018300018600000C055
:103DC000000180000300000618000C18001FF80016
:103DD0001FF80000000000000000000000000000CC
:103DE000000000000000000000000000000000E0F3
:103DF0000001E000018000018000018000018000DE
:103E000001800001800003800007000003800001A2
:103E1000800001800001800001800001800001E03D
:103E20000000E000000000000000000000000000B2
:103E300000000000000001800001800001800001FE
:103E4000800001800001800001800001800001806D
:103E500000018000018000018000018000018000DD
:103E6000018000018000018000018000000000004E
:103E7000000000000000000000000000000007003B
:103E800000078000018000018000018000018000A7
:103E900001800001800001C00000E00001C00001BD
:103EA0008000018000018000018000018000078007
:103EB00000070000000000000000000000000000FB
:103EC00000000000000000000000000000000000F2
:103ED00000000000000000000E00001F18003BB8AA
:103EE0000031F00000E000000000000000000000D1
:103EF00000000000000000000000000000000000C2
:103F00000000000000000000010014140101000185
:103F100000000000000000000000000000000000A1
:103F20000000000000000000000000000000000091
:103F30000000000000000000000000000000000081
:103F400001601414010100010000000000000000E5
:103F50000000000000000000000000000000000061
:103F60000000000000000000000000000000000051
:103F700000000000000000000160141401010001B5
:103F80000000000000000000000000000000000031
:103F90000000000000000000000000000000000021
:103FA0000000000000000000000000000000000011
:103FB0000190141401010001000000000000000045
:103FC00000000000000000000000000000000000F1
:103FD00000000000000000000000000000000000E1
:103FE0000000000000000000019014140101000115
:103FF00000000000000000000000000000000000C1
:1040000000000000000000000000000000000000B0
:1040100000000000000000000000000000000000A0
:104020000100140101000000000000000000000079
:104030000000000000000000000000000000000080
:104040000000000000000000000000000000000070
:104050000000000000000000012014010100000029
:104060000000000000000000000000000000000050
:104070000000000000000000000000000000000040
:104080000000000000000000000000000000000030
:104090000180140101000000000000000000000089
:1040A0000000000000000000000000000000000010
:1040B0000000000000000000000000000000000000
:1040C0000000000000000000014014010100000099
:1040D00000000000000000000000000000000000E0
:1040E00000000000000000000000000000000000D0
:1040F00000000000000000000000000000000000C0
:104100000100140101000000000000000000000098
:10411000000000000000000000000000000000009F
:10412000000000000000000000000000000000008F
:104130000000000000000000FFFFFFFFFFFFFFFF87
:10414000FFFFFFFFFFFFFFC0FFFFFFFFFFFFFFFFBE
:10415000FFFFFFFFFFFFFFC0FFFFFFFFFFFFFFFFAE
:10416000FFFFFFFFFFFFFFC0FFFFFFFF9FFFFFFFFE
:10417000FFFFFFFFFFFFFFC0FFFFFFFF9FFF7EFF6F
:1041800077FFFFFFFFFFFFC0FFFFFFFF9FFF00FF65
:104190004FFFFF7FFFFFFFC0FFFFFFFF9FFFBEF846
:1041A000007FFF1FFFFFFFC0FFFFFFFF9FFF7FFF9D
:1041B0006FFFFF67FFFFFFC0FFFFFFFF9FFF7FFF56
:1041C000BDFFFFF8FFFFFFC0FFFFFFFF9FFF7FFD69
:1041D000B3FFFF67FFFFFFC0FFFFFFFF9FFF7EFDF5
:1041E000BF7FFF1FFFFFFFC0FFFFFFFF9FFF80FD9F
:1041F000807FFF7FFFFFFFC0FFFFFFFF9FFFFEFDF0
:10420000BFFFFFFFFFFFFFC0FFFFFFFF9FFFFFFD9F
:10421000B7FFFFFFFFFFFFC0FFFFFFFF9FFFFCFF98
:10422000B9FFFFFCFFFFFFC0FFFFFFDF9FFFFCFFA9
:10423000FFFFFFFCFFFFFFC0FFFFFF9F9FFFFFFE91
:10424000007FFFFFFFFFFFC0FFFFFE1F9FFFFFFC80
:10425000EEFFFFFFFFFFFFC0FFFFF0DF9FFFFFFA52
:10426000EEFFFFFFFFFFFFC0FFFF87DF9FFFFFFEA7
:10427000EEFFFFFFFFFFFFC0FFFC37FF9FFFFFFECA
:10428000007FFFFFFFFFFFC0FFE1F7FF9FFFFFFF82
:10429000BFFFFFFFFFFFFFC0FFC7F7FF9FFFFFFF4D
:1042A0007FFFFFFFFFFFFFC0FFC0F7FF9FFFFFF88B
:1042B000DFFFFFFFFFFFFFC0FFF817FF9FFFFFFEBD
:1042C000E77FFFFFFFFFFFC0FFFF03DF9FFFFFFE52
:1042D000FF7FFFFFFFFFFFC0FFFFE01F9FFFFFFE0D
:1042E00000FFFFFFFFFFFFC0FFFFF81F9FFFFFFF63
:1042F000FFFFFE003FFFFFC0FFFFFF1F9FFE003ECE
:10430000FFFFFEDB7FFFFFC0FFFFFFDF9FFEDB7CC9
:10431000807FFE003FFFFFC0FFFFFFDF9FFEDB7AD5
:10432000ABFFFFFFFFFFFFC0FFFFFFFF9FFEDB7E36
:10433000AB7FFEC03FFFFFC0FFFFBFDF9FFEDB7C08
:10434000807FFC5B7FFFFFC0FFF7BFDF9FFEDB7F4F
:10435000FFFFFEDB7FFFFFC0FFE3001F9FFEDB7858
:1043600060FFFEC07FFFFFC0FFE7001F9FFEDB7EF8
:10437000BD7FFEDB7FFFFFC0FFFFFFDF9FFE003D35
:10438000BB7FFC5B7FFFFFC0FFFFFFDF9FFFFFFBEB
:10439000B77FFEC03FFFFFC0FFFFFFFF9FFFFFFF94
:1043A0003C7FFFFFFFFFFFC0FFFFBFDF9FFFBBFFA3
:1043B000FFFFFF7F7FFFFFC0FFFFBFDF9FFFA7FF64
:1043C0007F7FFFBEFFFFFFC0FFFF001F9FFC003F7E
:1043D0007EFFFFEDFFFFFFC0FFFF001F9FFFB7FF46
:1043E0007DFFFFDFFFFFFFC0FFFFBFDF9FFFDEFF9F
:1043F00073FFFF003FFFFFC0FFFFBFDF9FFED9F845
:104400000FFFFC6DBFFFFFC0FFFF7FFF9FFEDFBF01
:104410007FFFFF6DBFFFFFC0FFFF7FDF9FFEC03F3D
:104420007F7FFD003FFFFFC0FFFF3FDF9FFEDFFFFD
:104430007F7FFE6DBFFFFFC0FFFF001F9FFEDBFF02
:104440007F7FFF6DBFFFFFC0FFFF801F9FFFDCFF6F
:1044500000FFFF7FBFFFFFC0FFFFBFDF9FFFFFFF2A
:10446000FFFFFFFFFFFFFFC0FFFFBFDF9FFFFFFF5B
:10447000FFFFFFFFFFFFFFC0FFFF7FFF9FFFFFFF6B
:10448000FFFFFFFFFFFFFFC0FFFF7FDF9FFFF2FF88
:10449000FFFFFFF2FFFFFFC0FFFF3FDF9FFFF1FFC6
:1044A000FFFFFFF1FFFFFFC0FFFF001F9FFFFFFFA8
:1044B000FFFFFFFFFFFFFFC0FFFF801F9FFFFFFF0A
:1044C000FFFFFFFFFFFFFFC0FFFFFFDF9FFFFFFFBB
:1044D000FFFFFFFFFFFFFFC0FFFFFFDF9FFFFFFFAB
:1044E000FFFFFFFFFFFFFFC0FFFFFFFF9FFFFFFF7B
:1044F000FFFFFFFFFFFFFFC0FFFFFFFF9FFFFFFF6B
:10450000FFFFFFFFFFFFFFC0FFFFFFFF9FFFFFFF5A
:10451000FFFFFFFFFFFFFFC0FFFFFFFF9FFFFFFF4A
:10452000FFFFFFFFFFFFFFC0FFFFFFFF9FFFFFFF3A
:10453000FFFFFF6FBFFFFFC0FFFFFFFF9FFE003FBA
:10454000FFFFFF727FFFFFC0FFFFFFFF9FFEDB7FCC
:10455000FFFFFF7DFFFFFFC0FFFFFFFF9FFEDB7F31
:10456000FFFFFF72FFFFFFC0FFFFFFFF9FFEDB7F2C
:10457000FFFFFF0F3FFFFFC0FFFFFFFF9FFEDB7F3F
:10458000FFFFFFFFFFFFFFC0FFFFFFFF9FFEDB7F7F
:10459000FFFFFFB7FFFFFFC0FFFFFFFF9FFEDB7FB7
:1045A000FFFFFFB9BFFFFFC0FFFFFFFF9FFEDB7FE5
:1045B000FFFFFFBFBFFFFFC0FFFFFFFF9FFE003FEA
:1045C000FFFFFC003FFFFFC0FFFFFFFF9FFFFFFF5C
:1045D000FFFFFFBFFFFFFFC0FFFFFFFF9FFFFFFFCA
:1045E000FFFFFFFFFFFFFFC0FFFFFFFF9FFF003F39
:1045F000FFFFFF7F7FFFFFC0FFFFFFFF9FFE777F73
:10460000FFFFFFBEFFFFFFC0FFFFFFFF9FFD777FA4
:10461000FFFFFFEDFFFFFFC0FFFFFFFF9FFF777F63
:10462000FFFFFFDFFFFFFFC0FFFFFFFF9FFF003F18
:10463000FFFFFF003FFFFFC0FFFFFFFF9FFFDFFF08
:10464000FFFFFC6DBFFFFFC0FFFFFFFF9FFFBFFF2E
:10465000FFFFFF6DBFFFFFC0FFFFFFFF9FFC6FFF6E
:10466000FFFFFD003FFFFFC0FFFFFFFF9FFF73BF86
:10467000FFFFFE6DBFFFFFC0FFFFFFFF9FFF7FBF7C
:10468000FFFFFF6DBFFFFFC0FFFFFFFF9FFF007F2A
:10469000FFFFFF7FBFFFFFC0FFFFFFFF9FFFFFFF89
:1046A000FFFFFFFFFFFFFFC0FFFFFFFF9FFFFFFFB9
:1046B000FFFFFFFFFFFFFFC0FFFFFFFF9FFFFFFFA9
:1046C000FFFFFFFFFFFFFFC0FFFFFFFF9FFF92FF06
:1046D000FFFFFF92FFFFFFC0FFFFFFFF9FFF91FF64
:1046E000FFFFFF91FFFFFFC0FFFFFFFF9FFFFFFFE7
:1046F000FFFFFFFFFFFFFFC0FFFFFFFF9FFFFFFF69
:10470000FFFFFFFFFFFFFFC0FFFFFFFF9FFFFFFF58
:10471000FFFFFFFFFFFFFFC0FFFFFFFF9FFFFFFF48
:10472000FFFFFFFFFFFFFFC0FFFFFFFF9FFFFFFF38
:10473000FFFFFFFFFFFFFFC0FFFFFFFF9FFFFFFF28
:10474000FFFFFFFFFFFFFFC0FFFFFFFF9FFFFFFF18
:10475000FFFFFFFFFFFFFFC0FFFFFFFF9FFFFFFF08
:10476000FFFFFFFFFFFFFFC0FFFFFFFF9FFE003FB8
:10477000FFFFFFFFFFFFFFC0FFFFFFFF9FFEDB7F8D
:10478000FFFFFC303FFFFFC0FFFFFFFF9FFE003F2A
:10479000FFFFFF557FFFFFC0FFFFFFFF9FFFFFFFF2
:1047A000FFFFFF557FFFFFC0FFFFFFFF9FFEC03FE2
:1047B000FFFFFED57FFFFFC0FFFFFFFF9FFC5B7F7A
:1047C000FFFFFED57FFFFFC0FFFFFFFF9FFEDB7FE8
:1047D000FFFFFED57FFFFFC0FFFFFFFF9FFEC07FF3
:1047E000FFFFFDD57FFFFFC0FFFFFFFF9FFEDB7FC9
:1047F000FFFFFDD57FFFFFC0FFFFFFFF9FFC5B7F3B
:10480000FFFFFF103FFFFFC0FFFFFFFF9FFEC03F06
:10481000FFFFFFFFFFFFFFC0FFFFFFFF9FFFFFFF47
:10482000FFFFFFFFFFFE7FC0FFFFFFFF9FFF7F7FB8
:10483000FFFFFF7BFFFE7FC0FFFFFFFF9FFFBEFF6D
:10484000FFFFFF77FFFDBFC0FFFFFFFF9FFFEDFFF3
:10485000FFFFFF603FFBDFC0FFFFFFFF9FFFDFFFAA
:10486000FFFFFF1FFFFBDFC0FFFFFFFF9FFF003FBA
:10487000FFFFFC7FBFF7EFC0FFFFFFFF9FFC6DBF97
:10488000FFFFFF7BBFE7EFC0FFFFFFFF9FFF6DBF95
:10489000FFFFFF7BBFEFF7C0FFFFFFFF9FFD003F64
:1048A000FFFFFF403FC003C0FFFFFFFF9FFE6DBF44
:1048B000FFFFFF7BBFFFFFC0FFFFFFFF9FFF6DBF3D
:1048C000FFFFFF7BBFFFFFC0FFFFFFFF9FFF7FBF1B
:1048D000FFFFFF7FBFFFFFC0FFFFFFFF9FFFFFFF47
:1048E000FFFFFFFFFFC003C0FFFFFFFF9FFFFFFFB2
:1048F000FFFFFFFFFFE007C0FFFFFFFF9FFFFFFF7E
:10490000FFFFFFFFFFE007C0FFFFFFFF9FFFF2FF7A
:10491000FFFFFFF2FFF00FC0FFFFFFFF9FFFF1FF60
:10492000FFFFFFF1FFF00FC0FFFFFFFF9FFFFFFF43
:10493000FFFFFFFFFFF81FC0FFFFFFFF9FFFFFFF0D
:10494000FFFFFFFFFFFC3FC0FFFFFFFF9FFFFFFFD9
:10495000FFFFFFFFFFFC3FC0FFFFFFFF9FFFFFFFC9
:10496000FFFFFFFFFFFE7FC0FFFFFFFF9FFFFFFF77
:10497000FFFFFFFFFFFE7FC0FFFFFFFF9FFFFFFF67
:10498000FFFFFFFFFFFFFFC0FFFFFFFF9FFFFFFFD6
:10499000FFFFFFFFFFFFFFC0FFFFFFFF9FFFFFFFC6
:1049A000FFFFFFFFFFFFFFC0FFFFFFFF9FFF6FBF86
:1049B000FFFFFEDB7FFFFFC0FFFFFFFF9FFF727F58
:1049C000FFFFFE9B7FFFFFC0FFFFFFFF9FFF7DFFFD
:1049D000FFFFFE407FFFFFC0FFFFFFFF9FFF72FF53
:1049E000FFFFFEDAFFFFFFC0FFFFFFFF9FFF0F3F4C
:1049F000FFFFFE9ABFFFFFC0FFFFFFFF9FFFFFFF0C
:104A0000FFFFFFEF7FFFFFC0FFFFFFFF9FFFB7FF2D
:104A1000FFFFFF92FFFFFFC0FFFFFFFF9FFFB9BF38
:104A2000FFFFFC3DFFFFFFC0FFFFFFFF9FFFBFBF7A
:104A3000FFFFFFBAFFFFFFC0FFFFFFFF9FFC003F2C
:104A4000FFFFFF877FFFFFC0FFFFFFFF9FFFBFFF4D
:104A5000FFFFFFBFBFFFFFC0FFFFFFFF9FFFFFFF85
:104A6000FFFFFFFFFFFFFFC0FFFFFFFF9FFF7F7FF5
:104A7000FFFFFFBFBFFFFFC0FFFFFFFF9FFFBEFFA6
:104A8000FFFFFFBF7FFFFFC0FFFFFFFF9FFFEDFFA7
:104A9000FFFFFFBEFFFFFFC0FFFFFFFF9FFFDFFF26
:104AA000FFFFFFB9FFFFFFC0FFFFFFFF9FFF003FBA
:104AB000FFFFFC07FFFFFFC0FFFFFFFF9FFC6DBF75
:104AC000FFFFFFBFFFFFFFC0FFFFFFFF9FFF6DBFA7
:104AD000FFFFFFBFBFFFFFC0FFFFFFFF9FFD003FC6
:104AE000FFFFFFBFBFFFFFC0FFFFFFFF9FFE6DBFC8
:104AF000FFFFFFBFBFFFFFC0FFFFFFFF9FFF6DBFB7
:104B0000FFFFFF807FFFFFC0FFFFFFFF9FFF7FBF13
:104B1000FFFFFFFFFFFFFFC0FFFFFFFF9FFFFFFF44
:104B2000FFFFFFFFFFFFFFC0FFFFFFFF9FFFFFFF34
:104B3000FFFFFFEFFFFFFFC0FFFFFFFF9FFFFFFF34
:104B4000FFFFFDEFFFFFFFC0FFFFFFFF9FFF92FF93
:104B5000FFFFFDEFFFFFFFC0FFFFFFFF9FFF91FF84
:104B6000FFFFFDEFBFFFFFC0FFFFFFFF9FFFFFFF46
:104B7000FFFFFDEFBFFFFFC0FFFFFFFF9FFFFFFF36
:104B8000FFFFFC003FFFFFC0FFFFFFFF9FFFFFFF96
:104B9000FFFFFDEFFFFFFFC0FFFFFFFF9FFFFFFFD6
:104BA000FFFFFDEFFFFFFFC0FFFFFFFF9FFFFFFFC6
:104BB000FFFFFDEFFFFFFFC0FFFFFFFF9FFFFFFFB6
:104BC000FFFFFDEFFFFFFFC0FFFFFFFF9FFFFFFFA6
:104BD000FFFFFFEFFFFFFFC0FFFFFFFF9FFFFFFF94
:104BE000FFFFFFFFFFFFFFC0FFFFFFFF9FFFBBFFB8
:104BF000FFFFFFFFFFFFFFC0FFFFFFFF9FFFA7FFBC
:104C0000FFFFFFFFFFFFFFC0FFFFFFFF9FFC003F15
:104C1000FFFFFFFFFFFFFFC0FFFFFFFF9FFFB7FF8B
:104C2000FFFFFFFFFFFFFFC0FFFFFFFF9FFFDFFF53
:104C3000FFFFFFFFFFFFFFC0FFFFFFFF9FFFA07F02
:104C4000FFFFFFFFFFFFFFC0FFFFFFFF9FFF6FBFE3
:104C5000FFFFFFFFFFFFFFC0FFFFFFFF9FFCEFBF56
:104C6000FFFFFFFFFFFFFFC0FFFFFFFF9FFF6DBFC5
:104C7000FFFFFFFFFFFFFFC0FFFFFFFF9FFFA1BF81
:104C8000FFFFFFFFFFFFFFC0FFFFFFFF9FFFDF3FB3
:104C9000FFFFFFFFFFFFFFC0FFFFFFFF9FFFFFFFC3
:104CA000FFFFFFFFFFFFFFC0FFFFFFFF9FFFDF7F53
:104CB000FFFFFFFFFFFFFFC0FFFFFFFF9FFDEEFFB6
:104CC000FFFFFFFFFFFFFFC0FFFFFFFF9FFEF5FF9E
:104CD000FFFFFFFFFFFFFFC0FFFFFFFF9FFFB77F4B
:104CE000FFFFFFFFFFFFFFC0FFFFFFFF9FFFB67F3C
:104CF000FFFFFFFFFFFFFFC0FFFFFFFF9FFFB17F31
:104D0000FFFFFFFFFFFFFFC0FFFFFFFF9FFC077FCD
:104D1000FFFFFFFFFFFFFFC0FFFFFFFF9FFFB77F0A
:104D2000FFFFFFFFFFFFFFC0FFFFFFFF9FFFB57FFC
:104D3000FFFFFFFFFFFFFFC0FFFFFFFF9FFFB67FEB
:104D4000FFFFFFFFFFFFFFC0FFFFFFFF9FFFF73FDA
:104D5000FFFFFFFFFFFFFFC0FFFFFFFF9FFFFFFF02
:104D6000FFFFFFFFFFFFFFC0FFFFFFFF9FFFFFFFF2
:104D7000FFFFFFFFFFFFFFC0FFFFFFFF9FFFFFFFE2
:104D8000FFFFFFFFFFFFFFC0FFFFFFFF9FFFF2FFDF
:104D9000FFFFFFFFFFFFFFC0FFFFFFFF9FFFF1FFD0
:104DA000FFFFFFFFFFFFFFC0FFFFFFFF9FFFFFFFB2
:104DB000FFFFFFFFFFFFFFC0FFFFFFFF9FFFFFFFA2
:104DC000FFFFFFFFFFFFFFC0FFFFFFFF9FFFFFFF92
:104DD000FFFFFFFFFFFFFFC0FFFFFFFF9FFFFFFF82
:104DE000FFFFFFFFFFFFFFC0FFFFFFFF9FFFFFFF72
:104DF000FFFFFFFFFFFFFFC0FFFFFFFF9FFFFFFF62
:104E0000FFFFFFFFFFFFFFC0FFFFFFFF9FFFFFFF51
:104E1000FFFFFFFFFFFFFFC0FFFFFFFF9FFFFFFF41
:104E2000FFFFFFFFFFFFFFC0FFFFFFFF9FFFEFFF41
:104E3000FFFFFFFFFFFFFFC0FFFFFFFF9FFF687F38
:104E4000FFFFFFFFFFFFFFC0FFFFFFFF9FFF6F7F21
:104E5000FFFFFFFFFFFFFFC0FFFFFFFF9FFF6F7F11
:104E6000FFFFFFFFFFFFFFC0FFFFFFFF9FFF6F7F01
:104E7000FFFFFFFFFFFFFFC0FFFFFFFF9FFC007F63
:104E8000FFFFFFFFFFFFFFC0FFFFFFFF9FFF6F7FE1
:104E9000FFFFFFFFFFFFFFC0FFFFFFFF9FFF6F7FD1
:104EA000FFFFFFFFFFFFFFC0FFFFFFFF9FFF6F7FC1
:104EB000FFFFFFFFFFFFFFC0FFFFFFFF9FFF683FF8
:104EC000FFFFFFFFFFFFFFC0FFFFFFFF9FFFEFFFA1
:104ED000FFFFFFFFFFFFFFC0FFFFFFFF9FFFFFFF81
:104EE000FFFFFFFFFFFFFFC0FFFFFFFF9FFFFFFF71
:104EF000FFFFFFFFFFFFFFC0FFFFFFFF9FFF81FFDF
:104F0000FFFFFFFFFFFFFFC0FFFFFFFF9FFFBBFF94
:104F1000FFFFFFFFFFFFFFC0FFFFFFFF9FFFBBFF84
:104F2000FFFFFFFFFFFFFFC0FFFFFFFF9FFFBBFF74
:104F3000FFFFFFFFFFFFFFC0FFFFFFFF9FFC003FE2
:104F4000FFFFFFFFFFFFFFC0FFFFFFFF9FFFBBFF54
:104F5000FFFFFFFFFFFFFFC0FFFFFFFF9FFFBBFF44
:104F6000FFFFFFFFFFFFFFC0FFFFFFFF9FFFBBFF34
:104F7000FFFFFFFFFFFFFFC0FFFFFFFF9FFF81FF5E
:104F8000FFFFFFFFFFFFFFC0FFFFFFFF9FFFFFFFD0
:104F9000FFFFFFFFFFFFFFC0FFFFFFFF9FFFFFFFC0
:104FA000FFFFFFFFFFFFFFC0FFFFFFFF9FFFFFFFB0
:104FB000FFFFFFFFFFFFFFC0FFFFFFFF9FFE003F60
:104FC000FFFFFFFFFFFFFFC0FFFFFFFF9FFEDB7F35
:104FD000FFFFFFFFFFFFFFC0FFFFFFFF9FFEDB7F25
:104FE000FFFFFFFFFFFFFFC0FFFFFFFF9FFEDB7F15
:104FF000FFFFFFFFFFFFFFC0FFFFFFFF9FFEDB7F05
:10500000FFFFFFFFFFFFFFC0FFFFFFFF9FFEDB7FF4
:10501000FFFFFFFFFFFFFFC0FFFFFFFF9FFEDB7FE4
:10502000FFFFFFFFFFFFFFC0FFFFFFFF9FFEDB7FD4
:10503000FFFFFFFFFFFFFFC0FFFFFFFF9FFE003FDF
:10504000FFFFFFFFFFFFFFC0FFFFFFFF9FFFFFFF0F
:10505000FFFFFFFFFFFFFFC0FFFFFFFF9FFFFFFFFF
:10506000FFFFFFFFFFFFFFC0FFFFFFFF9FFFFFFFEF
:10507000FFFFFFFFFFFFFFC0FFFFFFFF9FFFFFFFDF
:10508000FFFFFFFFFFFFFFC0FFFFFFFF9FFFFFFFCF
:10509000FFFFFFFFFFFFFFC0FFFFFFFF9FFFFFFFBF
:1050A000FFFFFFFFFFFFFFC0FFFFFFFFFFFFFFFF4F
:1050B000FFFFFFFFFFFFFFC0FFFFFFFFFFFFFFFF3F
:1050C000FFFFFFFFFFFFFFC0FFFFFFFFFFFFFFFF2F
:1050D000FFFFFFFFFFFFFFC0FFFFFFFFFFFFFFFF1F
:1050E000FFFFFFFFFFFFFFC0FFFFFFFFFFFFFFFF0F
:1050F000FFFFFFFFFFFFFFC0FFFFFFFFFFFFFFFFFF
:10510000FFFFFFFFFFFFFFC0FFFFFFFF9FFFFFFF4E
:10511000FFFFFFFFFFFFFFC0FFFFFFFF9FFF7EFFBF
:10512000FFFFFBF7FFFFFFC0FFFFFFFF9FFF00FF39
:10513000F7FFBBEFFFFFFFC0FFFFFFFF9FFFBEFFBB
:10514000F1FFD81FFFFFFFC0FFFFFFFF9FFF7FFFA3
:10515000F67FFFEFFFFFFFC0FFFFFFFF9FFF7FFF17
:10516000FF8FFFD7FFFFFFC0FFFFFFFF9FFF7FFF06
:10517000F67FC037FFFFFFC0FFFFFFFF9FFF7EFFEF
:10518000F1FFDBF7FFFFFFC0FFFFFFFF9FFF80FF87
:10519000F7FFDBF7FFFFFFC0FFFFFFFF9FFFFEFFF3
:1051A000FFFFB817FFFFFFC0FFFFFFFF9FFFFFFFDD
:1051B000FFFFBBF7FFFFFFC0FFFFFFFF9FFFFCFFED
:1051C000FFCFFBF7FFFFFFC0FFFFFFDF9FFFFCFFED
:1051D000FFCFFFFFFFFFFFC0FFFFFF9F9FFFFFFF0E
:1051E000FFFFFBFFFFFFFFC0FFFFFE1F9FFFFFFF53
:1051F000FFFFE007FFFFFFC0FFFFF0DF9FFFFFFFA4
:10520000FFFF9FFFFFFFFFC0FFFF87DF9FFFFFFF45
:10521000FFFFFFFFFFFFFFC0FFFC37FF9FFFFFFF08
:10522000FFFFC01FFFFFFFC0FFE1F7FF9FFFFFFF72
:10523000FFFFFFB7FFFFFFC0FFC7F7FF9FFFFFFFA5
:10524000FFFFDF6FFFFFFFC0FFC0F7FF9FFFFFFF04
:10525000FFFFE79FFFFFFFC0FFF817FF9FFFFFFF64
:10526000FFFFFC7FFFFFFFC0FFFF03DF9FFFFFFF8C
:10527000FFFF839FFFFFFFC0FFFFE01F9FFFFFFFB8
:10528000FFFFFFE7FFFFFFC0FFFFF81F9FFF7FBF8C
:10529000FBAFFFFFFFFFFFC0FFFFFF1F9FFF7F7FF1
:1052A000F3AFFFFFFFFFFFC0FFFFFFDF9FFF7CFFAC
:1052B000C8AFFFFFFFFFFFC0FFFFFFDF9FFF03FF40
:1052C000EAAFFE5FFFFFFFC0FFFFFFFF9FFD6FFF25
:1052D000EA03FE3FFFFFFFC0FFFFBFFE9FFE6FFF21
:1052E000C2FFFFFFFFFFFFC0FFFFBFFE9FFF6FBFBB
:1052F000EA03FFFFFFFFFFC0FFFF00009FFF6FBF3C
:10530000EAAFFFFFFFFFFFC0FFFF00009FFF6FBF7F
:10531000E8AFFFFFFFFFFFC0FFFF9F9E9FFF607F83
:10532000EBAFFFFFFFFFFFC0FFFFBFDE9FFF7FFF71
:10533000FBAFFFFFFFFFFFC0FFFF7FDF9FFFFFFF10
:10534000FFFFFFFFFFFFFFC0FFFF7FCF9FFFDF7F5C
:10535000FDFBFFFFFFFFFFC0FFFF3FDF9FFDEEFFF5
:10536000DDF7F77FFFFFFFC0FFFF1F1F9FFEF5FF69
:10537000EC0FF777FFFFFFC0FFFF803F9FFFB77F76
:10538000FFF78007FFFFFFC0FFFFE07F9FFFB67FB3
:10539000FFEBF6FFFFFFFFC0FFFFFFFF9FFFB17FA7
:1053A000E01BED77FFFFFFC0FFFFFFFF9FFC077FC4
:1053B000EDFBE557FFFFFFC0FFFFBFFE9FFFB77F7D
:1053C000EDFBA917FFFFFFC0FFFFBFFE9FFFB57FEB
:1053D000DC0BCC6FFFFFFFC0FFFF00009FFFB67F1D
:1053E000DDFBE96FFFFFFFC0FFFF00009FFFF73FFE
:1053F000FDFBE517FFFFFFC0FFFF9F9E9FFFFFFF25
:10540000FFFFED77FFFFFFC0FFFFBFDE9FFFFFFF46
:10541000FFFFFFFFFFFFFFC0FFFF7FDF9FFFFFFFDB
:10542000FFFFFBF7FFFFFFC0FFFF7FCF9FFFF2FFF4
:10543000FF2FBBEFFFFFFFC0FFFF3FDF9FFFF1FF2D
:10544000FF1FD81FFFFFFFC0FFFF1F1F9FFFFFFFB2
:10545000FFFFFFEFFFFFFFC0FFFF803F9FFFFFFF4A
:10546000FFFFFFD7FFFFFFC0FFFFE07F9FFFFFFFB2
:10547000FFFFC037FFFFFFC0FFFFFFFF9FFFFFFFE2
:10548000FFFFDBF7FFFFFFC0FFFFFFFF9FFFFFFFF7
:10549000FFFFDBF7FFFFFFC0FFFFBFDF9FFFFFFF47
:1054A000FFFFB817FFFFFFC0FFFFBFDF9FFFFFFF3A
:1054B000FFFFBBF7FFFFFFC0FFFF001F9FFFFFFFC6
:1054C000FFFFFBF7FFFFFFC0FFFF001F9FFF777F7E
:1054D000F01FFFFFFFFFFFC0FFFF9FDF9FFF74FF75
:1054E000FFFFFDFFFFFFFFC0FFFFBFDF9FFF6FFF5D
:1054F000C003BDFFFFFFFFC0FFFF3FFF9FFF5C7FBB
:10550000FDFFBDFFFFFFFFC0FFFF3FFF9FFF3FBF4E
:10551000FB03BDF7FFFFFFC0FFFF3FFF9FFC6BBF1B
:10552000C777BDF7FFFFFFC0FFFFFFFF9FFF34BF3F
:10553000F7778007FFFFFFC0FFFFE0FF9FFF5FBF20
:10554000F307BDFFFFFFFFC0FFFF803F9FFF6F3FDF
:10555000F577BDFFFFFFFFC0FFFF9F1F9FFF75FF98
:10556000F777BDFFFFFFFFC0FFFF3FDF9FFF767FA5
:10557000F703BDFFFFFFFFC0FFFF7FDF9FFFFFFFC0
:10558000FFFFFDFFFFFFFFC0FFFF7FDF9FFFFFBFAC
:10559000FDFBFFFFFFFFFFC0FFFF7FDF9FFE007FE0
:1055A000DDF7FFFFFFFFFFC0FFFF3F9F9FFEBFFF35
:1055B000EC0FFFFFFFFFFFC0FFFF9F3F9FFEBBBF42
:1055C000FFF7FFFFFFFFFFC0FFFF803F9FFE09BF08
:1055D000FFEBFFFFFFFFFFC0FFFFE0FF9FFEAABF43
:1055E000E01BFFFFFFFFFFC0FFFFFFFF9FFCAB7F44
:1055F000EDFBFFFFFFFFFFC0FFFFFFFF9FFEAB7F45
:10560000EDFBFFFFFFFFFFC0FFFFFE3F9FFE0ABF56
:10561000DC0BFFFFFFFFFFC0FFFF8C1F9FFEB9BF2A
:10562000DDFBFFFFFFFFFFC0FFFF8CDF9FFEBFBF63
:10563000FDFBFFFFFFFFFFC0FFFF3DDF9FFFFFFF01
:10564000FFFFFFFFFFFFFFC0FFFF79DF9FFFFFFFAF
:10565000FFFFFFFFFFFFFFC0FFFF7BDF9FFFFFFF9D
:10566000FFFFFFFFFFFFFFC0FFFF7BBF9FFF92FF1A
:10567000F92FFFFFFFFFFFC0FFFF3BBF9FFF91FF21
:10568000F91FFFFFFFFFFFC0FFFF803F9FFFFFFFEE
:10569000FFFFFFFFFFFFFFC0FFFFC01F9FFFFFFFD8
:1056A000FFFFFFFFFFFFFFC0FFFFFFDF9FFFFFFFC9
:1056B000FFFFFFFFFFFFFFC0FFFFFFDF9FFFFFFFB9
:1056C000FFFFFFFFFFFFFFC0FFFFFFFF9FFFFFFF89
:1056D000FFFFFFFFFFFFFFC0FFFFE0FF9FFFFFFF98
:1056E000FFFFFFFFFFFFFFC0FFFFC03F9FFFFFFF68
:1056F000FFFFFFFFFFFFFFC0FFFF9F1F9FFFFFFF99
:10570000FFFFFFFFFFFFFFC0FFFF3F9F9FFFBAFFAD
:10571000FBBFFFFFFFFFFFC0FFFF7FDF9FFF3AFFE1
:10572000FBBBFFFFFFFFFFC0FFFF7FDF9FFC8AFF88
:10573000C003FFFFFFFFFFC0FFFF7FDF9FFEAAFF49
:10574000FB7FFFFFFFFFFFC0FFFF3FDF9FFEA03F8C
:10575000F6BBFFFFFFFFFFC0FFFF9FBF9FFC2FFFB8
:10576000F2ABFFFFFFFFFFC0FFFF8F3F9FFEA03F99
:10577000D48BFFFFFFFFFFC0FFFFFFFF9FFEAAFFCD
:10578000E637FFFFFFFFFFC0FFFFFFFF9FFE8AFF1F
:10579000F4B7FFFFFFFFFFC0FFF7FFDF9FFEBAFF79
:1057A000F28BFFFFFFFFFFC0FFF7FFDF9FFFBAFF96
:1057B000F6BBFFFFFFFFFFC0FFE0001F9FFFFFFFE3
:1057C000FFFFFFFFFFFE7FC0FFE0001F9FFFDFBF67
:1057D000EEF7FFFFFFFE7FC0FFFFDFDF9FFDDF7FF4
:1057E000F76FFFFFFFFDBFC0FFFFBFDF9FFEC0FFE2
:1057F000FEFFFFFFFFFBDFC0FFFFBFFF9FFFFF7F3D
:10580000FD83FFFFFFFBDFC0FFFF7FFF9FFFFEBFAA
:10581000FAB7FFFFFFF7EFC0FFFF7FDF9FFE01BF7B
:10582000F6B7FFFFFFE7EFC0FFFF3FDF9FFEDFBFE1
:10583000CEB7FFFFFFEFF7C0FFFF801F9FFEDFBF68
:10584000F6B7FFFFFFC003C0FFFFC01F9FFDC0BF33
:10585000FAB7FFFFFFFFFFC0FFFFFFDF9FFDDFBFC6
:10586000FD83FFFFFFFFFFC0FFFFFFDF9FFFDFBFE5
:10587000FEFFFFFFFFFFFFC0FFFFFFFF9FFFFFFFD8
:10588000FFFFFFFFFFC003C0FFFFFFFF9FFFFFFF02
:10589000FFFFFFFFFFE007C0FFFFFFFF9FFFFFFFCE
:1058A000FFFFFFFFFFE007C0FFFFFFFF9FFFF2FFCB
:1058B000FF2FFFFFFFF00FC0FFFFFFFF9FFFF1FF74
:1058C000FF1FFFFFFFF00FC0FFFFFFFF9FFFFFFF66
:1058D000FFFFFFFFFFF81FC0FFFFFFFF9FFFFFFF5E
:1058E000FFFFFFFFFFFC3FC0FFFFFFFF9FFFFFFF2A
:1058F000FFFFFFFFFFFC3FC0FFFFFFFF9FFFFFFF1A
:10590000FFFFFFFFFFFE7FC0FFFFFFFF9FFFFFFFC7
:10591000FFFFFFFFFFFE7FC0FFFFFFFF9FFFFFFFB7
:10592000FFFFFFFFFFFFFFC0FFFFFFFF9FFFFFFF26
:10593000FFFFFFFFFFFFFFC0FFFFFFFF9FFFFFFF16
:10594000FFFFFFFFFFFFFFC0FFFFFFFF9FFFBBFF4A
:10595000F7FBFFFFFFFFFFC0FFFFFFFF9FFFBBBF86
:10596000F77BFFFFFFFFFFC0FFFFFFFF9FFC003F34
:10597000F6F7FFFFFFFFFFC0FFFFFFFF9FFFB7FF2F
:10598000F577FFFFFFFFFFC0FFFFFFFF9FFF6BBF2C
:10599000D7AFFFFFFFFFFFC0FFFFFFFF9FFF2ABF43
:1059A000E7DFFFFFFFFFFFC0FFFFFFFF9FFD48BFD7
:1059B000F7AFFFFFFFFFFFC0FFFFFFFF9FFE637F0B
:1059C000F577FFFFFFFFFFC0FFFFFFFF9FFF4B7F4C
:1059D000F6F7FFFFFFFFFFC0FFFFFFFF9FFF28BF9E
:1059E000F77BFFFFFFFFFFC0FFFFFFFF9FFF6BBFC6
:1059F000F7FBFFFFFFFFFFC0FFFFFFFF9FFFFFFF62
:105A0000FFFFFFFFFFFFFFC0FFFFFFFF9FFFDFBFA5
:105A1000FDFFFFFFFFFFFFC0FFFFFFFF9FFDDF7FD9
:105A2000DDFFFFFFFFFFFFC0FFFFFFFF9FFEC0FF87
:105A3000EC07FFFFFFFFFFC0FFFFFFFF9FFFFF7FA0
:105A4000FFEBFFFFFFFFFFC0FFFFFFFF9FFFFEBF5A
:105A5000FADBFFFFFFFFFFC0FFFFFFFF9FFE01BF5D
:105A6000E6B7FFFFFFFFFFC0FFFFFFFF9FFEDFBFA7
:105A7000FDEFFFFFFFFFFFC0FFFFFFFF9FFEDFBF48
:105A8000C31FFFFFFFFFFFC0FFFFFFFF9FFDC0BF62
:105A9000FDEFFFFFFFFFFFC0FFFFFFFF9FFDDFBF29
:105AA000F5D7FFFFFFFFFFC0FFFFFFFF9FFFDFBF37
:105AB000EEBBFFFFFFFFFFC0FFFFFFFF9FFFFFFFEA
:105AC000FFFFFFFFFFFFFFC0FFFFFFFF9FFFFFFF85
:105AD000FFFFFFFFFFFFFFC0FFFFFFFF9FFFFFFF75
